:020000040000FA
:060000000A128A11EE2F26
:100D8800831603178901FF30831603138600880131
:100D98000800031083120313861C03140030031881
:100DA8000130D62E0800031083120313061C031407
:100DB800003003180130E02E08003F3406345B345D
:100DC8004F3466346D347D3407347F346F34773470
:100DD8007C3439345E34793471347E088A007F0873
:100DE80082000A128A11F1260A128A118000840AE6
:100DF80004087D0603190034FF0A0319FE0AF52EBC
:100E0800132FC730F200082FF20B072F0B2F0C2FD0
:100E18000130F0020030031CF103F102132F7008B7
:100E28007104031D182F192F052F1A2F0800F4001D
:100E380010307402031C212F222F252FF201F301F9
:100E4800312F7408203E840083130008F000F1015C
:100E58007008F2007108F300312F7208831203132F
:100E680088000800831603138801FF3083120313D8
:100E78008800F430F0000130F1000A128A110427CA
:100E88000A128A11831203138801F430F00001302A
:100E9800F1000A128A1104270A128A11FF308312FC
:100EA80003138800F430F0000130F1000A128A11AF
:100EB80004270A128A11831203138801F430F00000
:100EC8000130F1000A128A1104270A128A11080057
:100ED800F801F7010A128A11C4260A128A110A12A5
:100EE8008A1136270A128A11CD2FCD2F77080A12B8
:100EF8008A111B270A128A11F801F80ACD2F0A1243
:100F08008A11D7260A128A11003A03198C2F8D2FBD
:100F1800922F0A30F5007508F800922F0A128A11EC
:100F2800CD260A128A11003A03199B2F9C2FCD2F28
:100F38001430F5007508F800CD2FCD2F0130F500DD
:100F48007508F7070B30F5007508F800CD2F0A1261
:100F58008A11D7260A128A11003A031DB42FB52F19
:100F6800CD2FF801CD2FCD2F0130F7021530F50028
:100F78007508F800CD2F0A128A11CD260A128A1197
:100F8800003A031DC82FC92FCD2FF801CD2FCD2F23
:100F9800CD2F7808F500F6017608003A0319D52F09
:100FA800CD2F7508003A03197A2F013A0319832FB8
:100FB8000B3A0319A22F013A0319AB2F1F3A031951
:100FC800B82F013A0319BF2FCD2FCD2FCD2F0A12DD
:100FD8008A11002883133030FD000630FE00E1300E
:100FE800FF00203084000A128A11F5260A128A119D
:080FF80083010A128A116C2F1B
:04400E00D6E0FFFFFA
:00000001FF
