:020000040000FA
:060000000A128A11EE2F26
:100D6400831603178901FF30831603138600880155
:100D74000800031083120313861C031400300318A5
:100D84000130C42E0800031083120313061C03143D
:100D9400003003180130CE2E08003F3406345B3493
:100DA4004F3466346D347D3407347F346F34773494
:100DB4007C3439345E34793471347E088A007F0897
:100DC40082000A128A11DF260A128A118000840A1C
:100DD40004087D0603190034FF0A0319FE0AE32EF2
:100DE400012FC730F200F62EF20BF52EF92EFA2E53
:100DF4000130F0020030031CF103F102012F7008EE
:100E04007104031D062F072FF32E082F0800F4008A
:100E140010307402031C0F2F102F132FF201F30153
:100E24001F2F7408203E840083130008F000F10192
:100E34007008F2007108F3001F2F72088312031365
:100E440088000800831603138801FF3083120313FC
:100E54008800F430F0000130F1000A128A11F22601
:100E64000A128A11831203138801F430F00001304E
:100E7400F1000A128A11F2260A128A11FF30831233
:100E840003138800F430F0000130F1000A128A11D3
:100E9400F2260A128A11831203138801F430F00037
:100EA4000130F1000A128A11F2260A128A1108008E
:100EB400F701F8010A128A11B2260A128A110A12DB
:100EC4008A1124270A128A11CD2FCD2F78080A12ED
:100ED4008A1109270A128A11F701F70ACD2F0A127B
:100EE4008A11C5260A128A11003A03197A2F7B2F18
:100EF400802F0A30F5007508F700802F0A128A1136
:100F0400BB260A128A11003A0319892F8A2FCD2F82
:100F14001430F5007508F700CD2FCD2F0130F50002
:100F24007508F8070A307802031C992F9A2F9C2F12
:100F3400F8019C2F0B30F5007508F700CD2F0A122D
:100F44008A11C5260A128A11003A031DAA2FAB2F53
:100F5400CD2FF701CD2FCD2F78080319B22FB32F42
:100F6400B62F0130F802BA2F0930F5007508F800E1
:100F74001530F5007508F700CD2F0A128A11BB262B
:100F84000A128A11003A031DC82FC92FCD2FF70169
:100F9400CD2FCD2FCD2F7708F500F6017608003A36
:100FA4000319D52FCD2F7508003A0319682F013A7C
:100FB4000319712F0B3A0319902F013A0319A12F2A
:100FC4001F3A0319AE2F013A0319BF2FCD2FCD2F8E
:100FD400CD2F0A128A11002883133030FD00063009
:100FE400FE00CF30FF00203084000A128A11E3266D
:0C0FF4000A128A1183010A128A115A2F76
:04400E00D6E0FFFFFA
:00000001FF
